:100000000C942A000C943F000C943F000C943F0089
:100010000C943F000C943F000C943F000C943F0064
:100020000C943F000C943F000C943F000C943F0054
:100030000C943F000C943F000C943F000C943F0044
:100040000C943F000C943F000C943F000C943F0034
:100050000C943F0011241FBECFE5D4E0DEBFCDBF1E
:1000600010E0A0E6B0E0E4E4F5E002C005900D92F7
:10007000A238B107D9F70E944F000C94A0020C944B
:10008000000020E030E04AEF50E005C0FA0131976F
:10009000F1F72F5F3F4F28173907C0F30895CF922C
:1000A000DF92EF92FF920F931F93DF93CF93CDB721
:1000B000DEB72A970FB6F894DEBF0FBECDBF80E043
:1000C0000E94320183E390E00E94D2010E94CC00A2
:1000D00081E090E060E070E00E940A0180E690E03C
:1000E0000E945D0180E061E00E94C9018CE690E021
:1000F0000E945D0180E090E02AEF30E0F901319745
:10010000F1F7019684319105C9F781E090E060E054
:1001100070E00E940A0180E690E00E945D019AEF83
:10012000C92ED12C7E010894E11CF11C80E090E0E6
:100130000E94D1008C0180E090E0F6013197F1F748
:10014000019684369105C9F78CE790E00E943E0243
:1001500016950795802F90E0B7014AE050E00E9485
:100160006F02C7010E943E028AE090E00E94DD011A
:1001700080E061E00E94C901802F90E063E070E0C0
:100180000E946B0180E090E0F6013197F1F7019653
:1001900084369105C9F7CACF80E487B987E886B964
:1001A000089597B1987F97B997B18770892B87B9D0
:1001B000369A349BFECF349A24B135B1C9010895E3
:1001C00084B3807F84BB959A969881E08A95F1F7F5
:1001D00021E0979A822F8A95F1F783B38295807FE9
:1001E000922F9A95F1F79798922F9A95F1F7979AFF
:1001F000922F9A95F1F793B3922F9A95F1F79798DA
:10020000922F9A95F1F787FDE4CF959884B38F608C
:1002100084BB0895382F662311F4969801C0969AEE
:1002200021E0822F8A95F1F7979A85B3932F9295C3
:100230009F70807F982B95BB822F8A95F1F79798B6
:10024000822F8A95F1F7979A85B33F70807F832B31
:1002500085BB822F8A95F1F797982A95F1F70E942E
:10026000E00008951F93182F8CE49DE10197F1F7AA
:1002700084B38F6084BB8F9A8E9A8D9A85B3807F6A
:1002800085BB97989598969881E0982F9A95F1F765
:10029000979AA99A982F9A95F1F797988A95F1F7D6
:1002A0000E94E000812F8C6060E00E940A0188E2D9
:1002B00060E00E940A011F910895CF93DF93EC0143
:1002C00004C061E00E940A01219688818823C9F751
:1002D000DF91CF910895EF92FF920F931F93DF93D9
:1002E000CF9300D000D00F92CDB7DEB79C018B0129
:1002F000FE01319685E0DF011D928A95E9F7FE0146
:1003000035960DC0C9016AE070E00E944802808302
:10031000C9016AE070E00E9448029B0131972115F3
:10032000310581F7BFEF0F3F1B0779F420E030E084
:10033000AE014F5F5F4F02C02F5F3F4FFA01E20FE8
:10034000F31F80818823C1F304C025E030E0201B27
:10035000310B7E010894E11CF11CE20EF31E8901B1
:1003600009C0F70181917F01805D61E00E940A016F
:100370000F5F1F4F05301105A4F30F900F900F90E2
:100380000F900F90CF91DF911F910F91FF90EF9001
:100390000895883230F461118064806860E00E94C2
:1003A0000A01089589B990BD86E880BD88ED8AB9B3
:1003B00008955F9BFECF8CB108955D9BFECF8CB9F5
:1003C00008950F931F93DF93CF9300D000D00F9227
:1003D000CDB7DEB79C018B01FE01319685E0DF01D0
:1003E0001D928A95E9F7FE0135960DC0C9016AE0B4
:1003F00070E00E9448028083C9016AE070E00E94B8
:1004000048029B0131972115310581F7BFEF0F3F5E
:100410001B0771F4A0E0B0E09E012F5F3F4F01C0C9
:100420001196F901EA0FFB1F80818823C9F304C0EC
:10043000A5E0B0E0A01BB10BA530B105ACF4AC0F4A
:10044000BD1F11968C915D9BFECF805D8CB984ECB5
:1004500099E0FC013197F1F7FC013197F1F7FC01CC
:100460003197F1F70197F1F70F900F900F900F90E0
:100470000F90CF91DF911F910F910895FC0104C05F
:100480005D9BFECF31968CB980818823C9F7089592
:1004900097FB092E07260AD077FD04D00CD006D092
:1004A00000201AF4709561957F4F0895F6F79095A6
:1004B00081959F4F0895AA1BBB1B51E107C0AA1F3E
:1004C000BB1FA617B70710F0A61BB70B881F991FF5
:1004D0005A95A9F780959095BC01CD010895FB012F
:1004E0009F01E8944230C4F04532B4F44A3029F414
:1004F00097FB1EF4909581959F4F642F77270E945C
:100500005B02805D8A330CF0895D8193CB0100979B
:10051000A1F716F45DE251931082C9010C94900288
:10052000DC01FC01672F71917723E1F7329704C05A
:100530007C916D9370836291AE17BF07C8F30895E5
:04054000F894FFCF5D
:1005440054656D7065726174757265004D6F6E6986
:10055400746F72696E67204E6F6465004653523142
:020564003A005B
:00000001FF
